{
  "_format": "hh-sol-artifact-1",
  "contractName": "Faucet",
  "sourceName": "contracts/faucet.sol",
  "abi": [
    {
      "inputs": [],
      "stateMutability": "payable",
      "type": "constructor"
    },
    {
      "inputs": [],
      "name": "CONTRACT_INITIAL_SUPPLY",
      "outputs": [
        {
          "internalType": "uint256",
          "name": "",
          "type": "uint256"
        }
      ],
      "stateMutability": "view",
      "type": "function"
    },
    {
      "inputs": [],
      "name": "REQUESTED_COOLDOWN",
      "outputs": [
        {
          "internalType": "uint256",
          "name": "",
          "type": "uint256"
        }
      ],
      "stateMutability": "view",
      "type": "function"
    },
    {
      "inputs": [],
      "name": "REQUESTED_ETHER",
      "outputs": [
        {
          "internalType": "uint256",
          "name": "",
          "type": "uint256"
        }
      ],
      "stateMutability": "view",
      "type": "function"
    },
    {
      "inputs": [
        {
          "internalType": "address",
          "name": "account",
          "type": "address"
        }
      ],
      "name": "balanceOf",
      "outputs": [
        {
          "internalType": "uint256",
          "name": "",
          "type": "uint256"
        }
      ],
      "stateMutability": "view",
      "type": "function"
    },
    {
      "inputs": [
        {
          "internalType": "address",
          "name": "",
          "type": "address"
        }
      ],
      "name": "lastRequested",
      "outputs": [
        {
          "internalType": "uint256",
          "name": "",
          "type": "uint256"
        }
      ],
      "stateMutability": "view",
      "type": "function"
    },
    {
      "inputs": [],
      "name": "requestEth",
      "outputs": [],
      "stateMutability": "payable",
      "type": "function"
    }
  ],
  "bytecode": "0x6080604052683635c9adc5dea00000341461004f576040517f08c379a0000000000000000000000000000000000000000000000000000000008152600401610046906100d7565b60405180910390fd5b6100f7565b600082825260208201905092915050565b7f436f6e7472616374206d75737420626520696e697469616c697a65642077697460008201527f6820313030302065746865727300000000000000000000000000000000000000602082015250565b60006100c1602d83610054565b91506100cc82610065565b604082019050919050565b600060208201905081810360008301526100f0816100b4565b9050919050565b610687806101066000396000f3fe6080604052600436106100555760003560e01c80631f5dc8571461005a5780634508f8161461008557806370a08231146100b057806388212c01146100ed578063b5e8f49e1461012a578063f192d0a114610155575b600080fd5b34801561006657600080fd5b5061006f61015f565b60405161007c91906103a8565b60405180910390f35b34801561009157600080fd5b5061009a610166565b6040516100a791906103a8565b60405180910390f35b3480156100bc57600080fd5b506100d760048036038101906100d29190610426565b610173565b6040516100e491906103a8565b60405180910390f35b3480156100f957600080fd5b50610114600480360381019061010f9190610426565b610194565b60405161012191906103a8565b60405180910390f35b34801561013657600080fd5b5061013f6101ac565b60405161014c91906103a8565b60405180910390f35b61015d6101b8565b005b6201518081565b683635c9adc5dea0000081565b60008173ffffffffffffffffffffffffffffffffffffffff16319050919050565b60006020528060005260406000206000915090505481565b67016345785d8a000081565b620151806000803373ffffffffffffffffffffffffffffffffffffffff1673ffffffffffffffffffffffffffffffffffffffff168152602001908152602001600020546102059190610482565b421015610247576040517f08c379a000000000000000000000000000000000000000000000000000000000815260040161023e90610513565b60405180910390fd5b67016345785d8a0000471015610292576040517f08c379a00000000000000000000000000000000000000000000000000000000081526004016102899061057f565b60405180910390fd5b6000803373ffffffffffffffffffffffffffffffffffffffff1667016345785d8a00006040516102c1906105d0565b60006040518083038185875af1925050503d80600081146102fe576040519150601f19603f3d011682016040523d82523d6000602084013e610303565b606091505b5091509150426000803373ffffffffffffffffffffffffffffffffffffffff1673ffffffffffffffffffffffffffffffffffffffff168152602001908152602001600020819055508161038b576040517f08c379a000000000000000000000000000000000000000000000000000000000815260040161038290610631565b60405180910390fd5b5050565b6000819050919050565b6103a28161038f565b82525050565b60006020820190506103bd6000830184610399565b92915050565b600080fd5b600073ffffffffffffffffffffffffffffffffffffffff82169050919050565b60006103f3826103c8565b9050919050565b610403816103e8565b811461040e57600080fd5b50565b600081359050610420816103fa565b92915050565b60006020828403121561043c5761043b6103c3565b5b600061044a84828501610411565b91505092915050565b7f4e487b7100000000000000000000000000000000000000000000000000000000600052601160045260246000fd5b600061048d8261038f565b91506104988361038f565b92508282019050808211156104b0576104af610453565b5b92915050565b600082825260208201905092915050565b7f5761697420666f72206e65787420726571756573740000000000000000000000600082015250565b60006104fd6015836104b6565b9150610508826104c7565b602082019050919050565b6000602082019050818103600083015261052c816104f0565b9050919050565b7f46617563657420697320656d7074790000000000000000000000000000000000600082015250565b6000610569600f836104b6565b915061057482610533565b602082019050919050565b600060208201905081810360008301526105988161055c565b9050919050565b600081905092915050565b50565b60006105ba60008361059f565b91506105c5826105aa565b600082019050919050565b60006105db826105ad565b9150819050919050565b7f4661696c656420746f2073656e64204574686572000000000000000000000000600082015250565b600061061b6014836104b6565b9150610626826105e5565b602082019050919050565b6000602082019050818103600083015261064a8161060e565b905091905056fea2646970667358221220ddcd601b4db46daa5a431eb1708037b7e2b51b79c69a075c803db35ee2a8ab3d64736f6c634300081b0033",
  "linkReferences": {},
  "deployedLinkReferences": {}
}