{
  "_format": "hh-sol-artifact-1",
  "contractName": "OERToken",
  "sourceName": "contracts/OERToken.sol",
  "abi": [
    {
      "inputs": [],
      "stateMutability": "nonpayable",
      "type": "constructor"
    },
    {
      "inputs": [
        {
          "internalType": "address",
          "name": "spender",
          "type": "address"
        },
        {
          "internalType": "uint256",
          "name": "allowance",
          "type": "uint256"
        },
        {
          "internalType": "uint256",
          "name": "needed",
          "type": "uint256"
        }
      ],
      "name": "ERC20InsufficientAllowance",
      "type": "error"
    },
    {
      "inputs": [
        {
          "internalType": "address",
          "name": "sender",
          "type": "address"
        },
        {
          "internalType": "uint256",
          "name": "balance",
          "type": "uint256"
        },
        {
          "internalType": "uint256",
          "name": "needed",
          "type": "uint256"
        }
      ],
      "name": "ERC20InsufficientBalance",
      "type": "error"
    },
    {
      "inputs": [
        {
          "internalType": "address",
          "name": "approver",
          "type": "address"
        }
      ],
      "name": "ERC20InvalidApprover",
      "type": "error"
    },
    {
      "inputs": [
        {
          "internalType": "address",
          "name": "receiver",
          "type": "address"
        }
      ],
      "name": "ERC20InvalidReceiver",
      "type": "error"
    },
    {
      "inputs": [
        {
          "internalType": "address",
          "name": "sender",
          "type": "address"
        }
      ],
      "name": "ERC20InvalidSender",
      "type": "error"
    },
    {
      "inputs": [
        {
          "internalType": "address",
          "name": "spender",
          "type": "address"
        }
      ],
      "name": "ERC20InvalidSpender",
      "type": "error"
    },
    {
      "anonymous": false,
      "inputs": [
        {
          "indexed": true,
          "internalType": "address",
          "name": "owner",
          "type": "address"
        },
        {
          "indexed": true,
          "internalType": "address",
          "name": "spender",
          "type": "address"
        },
        {
          "indexed": false,
          "internalType": "uint256",
          "name": "value",
          "type": "uint256"
        }
      ],
      "name": "Approval",
      "type": "event"
    },
    {
      "anonymous": false,
      "inputs": [
        {
          "indexed": true,
          "internalType": "address",
          "name": "from",
          "type": "address"
        },
        {
          "indexed": true,
          "internalType": "address",
          "name": "to",
          "type": "address"
        },
        {
          "indexed": false,
          "internalType": "uint256",
          "name": "value",
          "type": "uint256"
        }
      ],
      "name": "Transfer",
      "type": "event"
    },
    {
      "inputs": [],
      "name": "DECIMALS",
      "outputs": [
        {
          "internalType": "uint256",
          "name": "",
          "type": "uint256"
        }
      ],
      "stateMutability": "view",
      "type": "function"
    },
    {
      "inputs": [],
      "name": "MAX_TOKENS_PER_USER",
      "outputs": [
        {
          "internalType": "uint256",
          "name": "",
          "type": "uint256"
        }
      ],
      "stateMutability": "view",
      "type": "function"
    },
    {
      "inputs": [],
      "name": "TOKENS_PER_CLAIM_PERIOD",
      "outputs": [
        {
          "internalType": "uint256",
          "name": "",
          "type": "uint256"
        }
      ],
      "stateMutability": "view",
      "type": "function"
    },
    {
      "inputs": [],
      "name": "TOKEN_NAME",
      "outputs": [
        {
          "internalType": "string",
          "name": "",
          "type": "string"
        }
      ],
      "stateMutability": "view",
      "type": "function"
    },
    {
      "inputs": [],
      "name": "TOKEN_SYMBOL",
      "outputs": [
        {
          "internalType": "string",
          "name": "",
          "type": "string"
        }
      ],
      "stateMutability": "view",
      "type": "function"
    },
    {
      "inputs": [],
      "name": "TOTAL_SUPPLY_TOKENS",
      "outputs": [
        {
          "internalType": "uint256",
          "name": "",
          "type": "uint256"
        }
      ],
      "stateMutability": "view",
      "type": "function"
    },
    {
      "inputs": [],
      "name": "VOTING_COOLDOWN",
      "outputs": [
        {
          "internalType": "uint256",
          "name": "",
          "type": "uint256"
        }
      ],
      "stateMutability": "view",
      "type": "function"
    },
    {
      "inputs": [
        {
          "internalType": "address",
          "name": "owner",
          "type": "address"
        },
        {
          "internalType": "address",
          "name": "spender",
          "type": "address"
        }
      ],
      "name": "allowance",
      "outputs": [
        {
          "internalType": "uint256",
          "name": "",
          "type": "uint256"
        }
      ],
      "stateMutability": "view",
      "type": "function"
    },
    {
      "inputs": [
        {
          "internalType": "address",
          "name": "spender",
          "type": "address"
        },
        {
          "internalType": "uint256",
          "name": "value",
          "type": "uint256"
        }
      ],
      "name": "approve",
      "outputs": [
        {
          "internalType": "bool",
          "name": "",
          "type": "bool"
        }
      ],
      "stateMutability": "nonpayable",
      "type": "function"
    },
    {
      "inputs": [
        {
          "internalType": "address",
          "name": "account",
          "type": "address"
        }
      ],
      "name": "balanceOf",
      "outputs": [
        {
          "internalType": "uint256",
          "name": "",
          "type": "uint256"
        }
      ],
      "stateMutability": "view",
      "type": "function"
    },
    {
      "inputs": [],
      "name": "claimVotingTokens",
      "outputs": [],
      "stateMutability": "nonpayable",
      "type": "function"
    },
    {
      "inputs": [],
      "name": "decimals",
      "outputs": [
        {
          "internalType": "uint8",
          "name": "",
          "type": "uint8"
        }
      ],
      "stateMutability": "view",
      "type": "function"
    },
    {
      "inputs": [
        {
          "internalType": "address",
          "name": "",
          "type": "address"
        }
      ],
      "name": "lastVoteTimestamp",
      "outputs": [
        {
          "internalType": "uint256",
          "name": "",
          "type": "uint256"
        }
      ],
      "stateMutability": "view",
      "type": "function"
    },
    {
      "inputs": [],
      "name": "name",
      "outputs": [
        {
          "internalType": "string",
          "name": "",
          "type": "string"
        }
      ],
      "stateMutability": "view",
      "type": "function"
    },
    {
      "inputs": [],
      "name": "symbol",
      "outputs": [
        {
          "internalType": "string",
          "name": "",
          "type": "string"
        }
      ],
      "stateMutability": "view",
      "type": "function"
    },
    {
      "inputs": [],
      "name": "totalSupply",
      "outputs": [
        {
          "internalType": "uint256",
          "name": "",
          "type": "uint256"
        }
      ],
      "stateMutability": "view",
      "type": "function"
    },
    {
      "inputs": [
        {
          "internalType": "address",
          "name": "to",
          "type": "address"
        },
        {
          "internalType": "uint256",
          "name": "value",
          "type": "uint256"
        }
      ],
      "name": "transfer",
      "outputs": [
        {
          "internalType": "bool",
          "name": "",
          "type": "bool"
        }
      ],
      "stateMutability": "nonpayable",
      "type": "function"
    },
    {
      "inputs": [
        {
          "internalType": "address",
          "name": "from",
          "type": "address"
        },
        {
          "internalType": "address",
          "name": "to",
          "type": "address"
        },
        {
          "internalType": "uint256",
          "name": "value",
          "type": "uint256"
        }
      ],
      "name": "transferFrom",
      "outputs": [
        {
          "internalType": "bool",
          "name": "",
          "type": "bool"
        }
      ],
      "stateMutability": "nonpayable",
      "type": "function"
    }
  ],
  "bytecode": "0x608060405234801561001057600080fd5b506040518060400160405280602081526020017f4f70656e20456475636174696f6e616c205265736f757263657320546f6b656e8152506040518060400160405280600481526020017f4f45525400000000000000000000000000000000000000000000000000000000815250816003908161008c91906105cc565b50806004908161009c91906105cc565b5050506100ca336012600a6100b19190610800565b620f42406100bf919061084b565b6100cf60201b60201c565b61097e565b600073ffffffffffffffffffffffffffffffffffffffff168273ffffffffffffffffffffffffffffffffffffffff16036101415760006040517fec442f0500000000000000000000000000000000000000000000000000000000815260040161013891906108ce565b60405180910390fd5b6101536000838361015760201b60201c565b5050565b600073ffffffffffffffffffffffffffffffffffffffff168373ffffffffffffffffffffffffffffffffffffffff16036101a957806002600082825461019d91906108e9565b9250508190555061027c565b60008060008573ffffffffffffffffffffffffffffffffffffffff1673ffffffffffffffffffffffffffffffffffffffff16815260200190815260200160002054905081811015610235578381836040517fe450d38c00000000000000000000000000000000000000000000000000000000815260040161022c9392919061092c565b60405180910390fd5b8181036000808673ffffffffffffffffffffffffffffffffffffffff1673ffffffffffffffffffffffffffffffffffffffff16815260200190815260200160002081905550505b600073ffffffffffffffffffffffffffffffffffffffff168273ffffffffffffffffffffffffffffffffffffffff16036102c55780600260008282540392505081905550610312565b806000808473ffffffffffffffffffffffffffffffffffffffff1673ffffffffffffffffffffffffffffffffffffffff168152602001908152602001600020600082825401925050819055505b8173ffffffffffffffffffffffffffffffffffffffff168373ffffffffffffffffffffffffffffffffffffffff167fddf252ad1be2c89b69c2b068fc378daa952ba7f163c4a11628f55a4df523b3ef8360405161036f9190610963565b60405180910390a3505050565b600081519050919050565b7f4e487b7100000000000000000000000000000000000000000000000000000000600052604160045260246000fd5b7f4e487b7100000000000000000000000000000000000000000000000000000000600052602260045260246000fd5b600060028204905060018216806103fd57607f821691505b6020821081036104105761040f6103b6565b5b50919050565b60008190508160005260206000209050919050565b60006020601f8301049050919050565b600082821b905092915050565b6000600883026104787fffffffffffffffffffffffffffffffffffffffffffffffffffffffffffffffff8261043b565b610482868361043b565b95508019841693508086168417925050509392505050565b6000819050919050565b6000819050919050565b60006104c96104c46104bf8461049a565b6104a4565b61049a565b9050919050565b6000819050919050565b6104e3836104ae565b6104f76104ef826104d0565b848454610448565b825550505050565b600090565b61050c6104ff565b6105178184846104da565b505050565b5b8181101561053b57610530600082610504565b60018101905061051d565b5050565b601f8211156105805761055181610416565b61055a8461042b565b81016020851015610569578190505b61057d6105758561042b565b83018261051c565b50505b505050565b600082821c905092915050565b60006105a360001984600802610585565b1980831691505092915050565b60006105bc8383610592565b9150826002028217905092915050565b6105d58261037c565b67ffffffffffffffff8111156105ee576105ed610387565b5b6105f882546103e5565b61060382828561053f565b600060209050601f8311600181146106365760008415610624578287015190505b61062e85826105b0565b865550610696565b601f19841661064486610416565b60005b8281101561066c57848901518255600182019150602085019450602081019050610647565b868310156106895784890151610685601f891682610592565b8355505b6001600288020188555050505b505050505050565b7f4e487b7100000000000000000000000000000000000000000000000000000000600052601160045260246000fd5b60008160011c9050919050565b6000808291508390505b600185111561072457808604811115610700576106ff61069e565b5b600185161561070f5780820291505b808102905061071d856106cd565b94506106e4565b94509492505050565b60008261073d57600190506107f9565b8161074b57600090506107f9565b8160018114610761576002811461076b5761079a565b60019150506107f9565b60ff84111561077d5761077c61069e565b5b8360020a9150848211156107945761079361069e565b5b506107f9565b5060208310610133831016604e8410600b84101617156107cf5782820a9050838111156107ca576107c961069e565b5b6107f9565b6107dc84848460016106da565b925090508184048111156107f3576107f261069e565b5b81810290505b9392505050565b600061080b8261049a565b91506108168361049a565b92506108437fffffffffffffffffffffffffffffffffffffffffffffffffffffffffffffffff848461072d565b905092915050565b60006108568261049a565b91506108618361049a565b925082820261086f8161049a565b915082820484148315176108865761088561069e565b5b5092915050565b600073ffffffffffffffffffffffffffffffffffffffff82169050919050565b60006108b88261088d565b9050919050565b6108c8816108ad565b82525050565b60006020820190506108e360008301846108bf565b92915050565b60006108f48261049a565b91506108ff8361049a565b92508282019050808211156109175761091661069e565b5b92915050565b6109268161049a565b82525050565b600060608201905061094160008301866108bf565b61094e602083018561091d565b61095b604083018461091d565b949350505050565b6000602082019050610978600083018461091d565b92915050565b6116638061098d6000396000f3fe608060405234801561001057600080fd5b50600436106101165760003560e01c80633b5c13b2116100a257806395d89b411161007157806395d89b41146102c3578063a9059cbb146102e1578063c5bf1ced14610311578063dd62ed3e1461032f578063de1cf4ad1461035f57610116565b80633b5c13b21461024d57806340db40d51461026b57806369c5dfd81461027557806370a082311461029357610116565b806318821400116100e957806318821400146101a557806323b872dd146101c35780632a905318146101f35780632e0f262514610211578063313ce5671461022f57610116565b806306fdde031461011b578063095ea7b3146101395780630f780b561461016957806318160ddd14610187575b600080fd5b61012361038f565b6040516101309190610fb3565b60405180910390f35b610153600480360381019061014e919061106e565b610421565b60405161016091906110c9565b60405180910390f35b610171610444565b60405161017e91906110f3565b60405180910390f35b61018f61044b565b60405161019c91906110f3565b60405180910390f35b6101ad610455565b6040516101ba9190610fb3565b60405180910390f35b6101dd60048036038101906101d8919061110e565b61048e565b6040516101ea91906110c9565b60405180910390f35b6101fb6104bd565b6040516102089190610fb3565b60405180910390f35b6102196104f6565b60405161022691906110f3565b60405180910390f35b6102376104fb565b604051610244919061117d565b60405180910390f35b610255610504565b60405161026291906110f3565b60405180910390f35b610273610521565b005b61027d61072b565b60405161028a91906110f3565b60405180910390f35b6102ad60048036038101906102a89190611198565b610748565b6040516102ba91906110f3565b60405180910390f35b6102cb610790565b6040516102d89190610fb3565b60405180910390f35b6102fb60048036038101906102f6919061106e565b610822565b60405161030891906110c9565b60405180910390f35b610319610845565b60405161032691906110f3565b60405180910390f35b610349600480360381019061034491906111c5565b610864565b60405161035691906110f3565b60405180910390f35b61037960048036038101906103749190611198565b6108eb565b60405161038691906110f3565b60405180910390f35b60606003805461039e90611234565b80601f01602080910402602001604051908101604052809291908181526020018280546103ca90611234565b80156104175780601f106103ec57610100808354040283529160200191610417565b820191906000526020600020905b8154815290600101906020018083116103fa57829003601f168201915b5050505050905090565b60008061042c610903565b905061043981858561090b565b600191505092915050565b6201518081565b6000600254905090565b6040518060400160405280602081526020017f4f70656e20456475636174696f6e616c205265736f757263657320546f6b656e81525081565b600080610499610903565b90506104a685828561091d565b6104b18585856109b1565b60019150509392505050565b6040518060400160405280600481526020017f4f4552540000000000000000000000000000000000000000000000000000000081525081565b601281565b60006012905090565b6012600a61051291906113c7565b600a61051e9190611412565b81565b62015180600560003373ffffffffffffffffffffffffffffffffffffffff1673ffffffffffffffffffffffffffffffffffffffff1681526020019081526020016000205461056f9190611454565b4210156105b1576040517f08c379a00000000000000000000000000000000000000000000000000000000081526004016105a8906114d4565b60405180910390fd5b6012600a6105bf91906113c7565b60646105cb9190611412565b6012600a6105d991906113c7565b600a6105e59190611412565b6105ee33610748565b6105f89190611454565b1115610639576040517f08c379a000000000000000000000000000000000000000000000000000000000815260040161063090611540565b60405180910390fd5b6012600a61064791906113c7565b620f42406106559190611412565b6012600a61066391906113c7565b600a61066f9190611412565b61067761044b565b6106819190611454565b11156106c2576040517f08c379a00000000000000000000000000000000000000000000000000000000081526004016106b9906115ac565b60405180910390fd5b6106e5336012600a6106d491906113c7565b600a6106e09190611412565b610aa5565b42600560003373ffffffffffffffffffffffffffffffffffffffff1673ffffffffffffffffffffffffffffffffffffffff16815260200190815260200160002081905550565b6012600a61073991906113c7565b60646107459190611412565b81565b60008060008373ffffffffffffffffffffffffffffffffffffffff1673ffffffffffffffffffffffffffffffffffffffff168152602001908152602001600020549050919050565b60606004805461079f90611234565b80601f01602080910402602001604051908101604052809291908181526020018280546107cb90611234565b80156108185780601f106107ed57610100808354040283529160200191610818565b820191906000526020600020905b8154815290600101906020018083116107fb57829003601f168201915b5050505050905090565b60008061082d610903565b905061083a8185856109b1565b600191505092915050565b6012600a61085391906113c7565b620f42406108619190611412565b81565b6000600160008473ffffffffffffffffffffffffffffffffffffffff1673ffffffffffffffffffffffffffffffffffffffff16815260200190815260200160002060008373ffffffffffffffffffffffffffffffffffffffff1673ffffffffffffffffffffffffffffffffffffffff16815260200190815260200160002054905092915050565b60056020528060005260406000206000915090505481565b600033905090565b6109188383836001610b27565b505050565b60006109298484610864565b90507fffffffffffffffffffffffffffffffffffffffffffffffffffffffffffffffff81146109ab578181101561099b578281836040517ffb8f41b2000000000000000000000000000000000000000000000000000000008152600401610992939291906115db565b60405180910390fd5b6109aa84848484036000610b27565b5b50505050565b600073ffffffffffffffffffffffffffffffffffffffff168373ffffffffffffffffffffffffffffffffffffffff1603610a235760006040517f96c6fd1e000000000000000000000000000000000000000000000000000000008152600401610a1a9190611612565b60405180910390fd5b600073ffffffffffffffffffffffffffffffffffffffff168273ffffffffffffffffffffffffffffffffffffffff1603610a955760006040517fec442f05000000000000000000000000000000000000000000000000000000008152600401610a8c9190611612565b60405180910390fd5b610aa0838383610cfe565b505050565b600073ffffffffffffffffffffffffffffffffffffffff168273ffffffffffffffffffffffffffffffffffffffff1603610b175760006040517fec442f05000000000000000000000000000000000000000000000000000000008152600401610b0e9190611612565b60405180910390fd5b610b2360008383610cfe565b5050565b600073ffffffffffffffffffffffffffffffffffffffff168473ffffffffffffffffffffffffffffffffffffffff1603610b995760006040517fe602df05000000000000000000000000000000000000000000000000000000008152600401610b909190611612565b60405180910390fd5b600073ffffffffffffffffffffffffffffffffffffffff168373ffffffffffffffffffffffffffffffffffffffff1603610c0b5760006040517f94280d62000000000000000000000000000000000000000000000000000000008152600401610c029190611612565b60405180910390fd5b81600160008673ffffffffffffffffffffffffffffffffffffffff1673ffffffffffffffffffffffffffffffffffffffff16815260200190815260200160002060008573ffffffffffffffffffffffffffffffffffffffff1673ffffffffffffffffffffffffffffffffffffffff168152602001908152602001600020819055508015610cf8578273ffffffffffffffffffffffffffffffffffffffff168473ffffffffffffffffffffffffffffffffffffffff167f8c5be1e5ebec7d5bd14f71427d1e84f3dd0314c0f7b2291e5b200ac8c7c3b92584604051610cef91906110f3565b60405180910390a35b50505050565b600073ffffffffffffffffffffffffffffffffffffffff168373ffffffffffffffffffffffffffffffffffffffff1603610d50578060026000828254610d449190611454565b92505081905550610e23565b60008060008573ffffffffffffffffffffffffffffffffffffffff1673ffffffffffffffffffffffffffffffffffffffff16815260200190815260200160002054905081811015610ddc578381836040517fe450d38c000000000000000000000000000000000000000000000000000000008152600401610dd3939291906115db565b60405180910390fd5b8181036000808673ffffffffffffffffffffffffffffffffffffffff1673ffffffffffffffffffffffffffffffffffffffff16815260200190815260200160002081905550505b600073ffffffffffffffffffffffffffffffffffffffff168273ffffffffffffffffffffffffffffffffffffffff1603610e6c5780600260008282540392505081905550610eb9565b806000808473ffffffffffffffffffffffffffffffffffffffff1673ffffffffffffffffffffffffffffffffffffffff168152602001908152602001600020600082825401925050819055505b8173ffffffffffffffffffffffffffffffffffffffff168373ffffffffffffffffffffffffffffffffffffffff167fddf252ad1be2c89b69c2b068fc378daa952ba7f163c4a11628f55a4df523b3ef83604051610f1691906110f3565b60405180910390a3505050565b600081519050919050565b600082825260208201905092915050565b60005b83811015610f5d578082015181840152602081019050610f42565b60008484015250505050565b6000601f19601f8301169050919050565b6000610f8582610f23565b610f8f8185610f2e565b9350610f9f818560208601610f3f565b610fa881610f69565b840191505092915050565b60006020820190508181036000830152610fcd8184610f7a565b905092915050565b600080fd5b600073ffffffffffffffffffffffffffffffffffffffff82169050919050565b600061100582610fda565b9050919050565b61101581610ffa565b811461102057600080fd5b50565b6000813590506110328161100c565b92915050565b6000819050919050565b61104b81611038565b811461105657600080fd5b50565b60008135905061106881611042565b92915050565b6000806040838503121561108557611084610fd5565b5b600061109385828601611023565b92505060206110a485828601611059565b9150509250929050565b60008115159050919050565b6110c3816110ae565b82525050565b60006020820190506110de60008301846110ba565b92915050565b6110ed81611038565b82525050565b600060208201905061110860008301846110e4565b92915050565b60008060006060848603121561112757611126610fd5565b5b600061113586828701611023565b935050602061114686828701611023565b925050604061115786828701611059565b9150509250925092565b600060ff82169050919050565b61117781611161565b82525050565b6000602082019050611192600083018461116e565b92915050565b6000602082840312156111ae576111ad610fd5565b5b60006111bc84828501611023565b91505092915050565b600080604083850312156111dc576111db610fd5565b5b60006111ea85828601611023565b92505060206111fb85828601611023565b9150509250929050565b7f4e487b7100000000000000000000000000000000000000000000000000000000600052602260045260246000fd5b6000600282049050600182168061124c57607f821691505b60208210810361125f5761125e611205565b5b50919050565b7f4e487b7100000000000000000000000000000000000000000000000000000000600052601160045260246000fd5b60008160011c9050919050565b6000808291508390505b60018511156112eb578086048111156112c7576112c6611265565b5b60018516156112d65780820291505b80810290506112e485611294565b94506112ab565b94509492505050565b60008261130457600190506113c0565b8161131257600090506113c0565b8160018114611328576002811461133257611361565b60019150506113c0565b60ff84111561134457611343611265565b5b8360020a91508482111561135b5761135a611265565b5b506113c0565b5060208310610133831016604e8410600b84101617156113965782820a90508381111561139157611390611265565b5b6113c0565b6113a384848460016112a1565b925090508184048111156113ba576113b9611265565b5b81810290505b9392505050565b60006113d282611038565b91506113dd83611038565b925061140a7fffffffffffffffffffffffffffffffffffffffffffffffffffffffffffffffff84846112f4565b905092915050565b600061141d82611038565b915061142883611038565b925082820261143681611038565b9150828204841483151761144d5761144c611265565b5b5092915050565b600061145f82611038565b915061146a83611038565b925082820190508082111561148257611481611265565b5b92915050565b7f57616974696e6720666f72206e65787420636c61696d00000000000000000000600082015250565b60006114be601683610f2e565b91506114c982611488565b602082019050919050565b600060208201905081810360008301526114ed816114b1565b9050919050565b7f4d617820746f6b656e7320706572207573657220726561636865640000000000600082015250565b600061152a601b83610f2e565b9150611535826114f4565b602082019050919050565b600060208201905081810360008301526115598161151d565b9050919050565b7f4d617820746f6b656e7320726561636865640000000000000000000000000000600082015250565b6000611596601283610f2e565b91506115a182611560565b602082019050919050565b600060208201905081810360008301526115c581611589565b9050919050565b6115d581610ffa565b82525050565b60006060820190506115f060008301866115cc565b6115fd60208301856110e4565b61160a60408301846110e4565b949350505050565b600060208201905061162760008301846115cc565b9291505056fea264697066735822122053d019dfd597970ac9c0d17db43ad2a31ff238f6da1d17ec2ca4dc714892f0e064736f6c634300081b0033",
  "linkReferences": {},
  "deployedLinkReferences": {}
}