{
  "_format": "hh-sol-artifact-1",
  "contractName": "OERToken",
  "sourceName": "contracts/OERToken.sol",
  "abi": [
    {
      "inputs": [],
      "stateMutability": "nonpayable",
      "type": "constructor"
    },
    {
      "inputs": [
        {
          "internalType": "address",
          "name": "spender",
          "type": "address"
        },
        {
          "internalType": "uint256",
          "name": "allowance",
          "type": "uint256"
        },
        {
          "internalType": "uint256",
          "name": "needed",
          "type": "uint256"
        }
      ],
      "name": "ERC20InsufficientAllowance",
      "type": "error"
    },
    {
      "inputs": [
        {
          "internalType": "address",
          "name": "sender",
          "type": "address"
        },
        {
          "internalType": "uint256",
          "name": "balance",
          "type": "uint256"
        },
        {
          "internalType": "uint256",
          "name": "needed",
          "type": "uint256"
        }
      ],
      "name": "ERC20InsufficientBalance",
      "type": "error"
    },
    {
      "inputs": [
        {
          "internalType": "address",
          "name": "approver",
          "type": "address"
        }
      ],
      "name": "ERC20InvalidApprover",
      "type": "error"
    },
    {
      "inputs": [
        {
          "internalType": "address",
          "name": "receiver",
          "type": "address"
        }
      ],
      "name": "ERC20InvalidReceiver",
      "type": "error"
    },
    {
      "inputs": [
        {
          "internalType": "address",
          "name": "sender",
          "type": "address"
        }
      ],
      "name": "ERC20InvalidSender",
      "type": "error"
    },
    {
      "inputs": [
        {
          "internalType": "address",
          "name": "spender",
          "type": "address"
        }
      ],
      "name": "ERC20InvalidSpender",
      "type": "error"
    },
    {
      "anonymous": false,
      "inputs": [
        {
          "indexed": true,
          "internalType": "address",
          "name": "owner",
          "type": "address"
        },
        {
          "indexed": true,
          "internalType": "address",
          "name": "spender",
          "type": "address"
        },
        {
          "indexed": false,
          "internalType": "uint256",
          "name": "value",
          "type": "uint256"
        }
      ],
      "name": "Approval",
      "type": "event"
    },
    {
      "anonymous": false,
      "inputs": [
        {
          "indexed": true,
          "internalType": "address",
          "name": "from",
          "type": "address"
        },
        {
          "indexed": true,
          "internalType": "address",
          "name": "to",
          "type": "address"
        },
        {
          "indexed": false,
          "internalType": "uint256",
          "name": "value",
          "type": "uint256"
        }
      ],
      "name": "Transfer",
      "type": "event"
    },
    {
      "inputs": [],
      "name": "DECIMALS",
      "outputs": [
        {
          "internalType": "uint256",
          "name": "",
          "type": "uint256"
        }
      ],
      "stateMutability": "view",
      "type": "function"
    },
    {
      "inputs": [],
      "name": "MAX_TOKENS_PER_USER",
      "outputs": [
        {
          "internalType": "uint256",
          "name": "",
          "type": "uint256"
        }
      ],
      "stateMutability": "view",
      "type": "function"
    },
    {
      "inputs": [],
      "name": "TOKENS_PER_CLAIM_PERIOD",
      "outputs": [
        {
          "internalType": "uint256",
          "name": "",
          "type": "uint256"
        }
      ],
      "stateMutability": "view",
      "type": "function"
    },
    {
      "inputs": [],
      "name": "TOKEN_NAME",
      "outputs": [
        {
          "internalType": "string",
          "name": "",
          "type": "string"
        }
      ],
      "stateMutability": "view",
      "type": "function"
    },
    {
      "inputs": [],
      "name": "TOKEN_SYMBOL",
      "outputs": [
        {
          "internalType": "string",
          "name": "",
          "type": "string"
        }
      ],
      "stateMutability": "view",
      "type": "function"
    },
    {
      "inputs": [],
      "name": "TOTAL_SUPPLY_TOKENS",
      "outputs": [
        {
          "internalType": "uint256",
          "name": "",
          "type": "uint256"
        }
      ],
      "stateMutability": "view",
      "type": "function"
    },
    {
      "inputs": [],
      "name": "VOTING_COOLDOWN",
      "outputs": [
        {
          "internalType": "uint256",
          "name": "",
          "type": "uint256"
        }
      ],
      "stateMutability": "view",
      "type": "function"
    },
    {
      "inputs": [
        {
          "internalType": "address",
          "name": "owner",
          "type": "address"
        },
        {
          "internalType": "address",
          "name": "spender",
          "type": "address"
        }
      ],
      "name": "allowance",
      "outputs": [
        {
          "internalType": "uint256",
          "name": "",
          "type": "uint256"
        }
      ],
      "stateMutability": "view",
      "type": "function"
    },
    {
      "inputs": [
        {
          "internalType": "address",
          "name": "spender",
          "type": "address"
        },
        {
          "internalType": "uint256",
          "name": "value",
          "type": "uint256"
        }
      ],
      "name": "approve",
      "outputs": [
        {
          "internalType": "bool",
          "name": "",
          "type": "bool"
        }
      ],
      "stateMutability": "nonpayable",
      "type": "function"
    },
    {
      "inputs": [
        {
          "internalType": "address",
          "name": "account",
          "type": "address"
        }
      ],
      "name": "balanceOf",
      "outputs": [
        {
          "internalType": "uint256",
          "name": "",
          "type": "uint256"
        }
      ],
      "stateMutability": "view",
      "type": "function"
    },
    {
      "inputs": [],
      "name": "claimVotingTokens",
      "outputs": [],
      "stateMutability": "nonpayable",
      "type": "function"
    },
    {
      "inputs": [],
      "name": "decimals",
      "outputs": [
        {
          "internalType": "uint8",
          "name": "",
          "type": "uint8"
        }
      ],
      "stateMutability": "view",
      "type": "function"
    },
    {
      "inputs": [
        {
          "internalType": "address",
          "name": "",
          "type": "address"
        }
      ],
      "name": "lastVoteTimestamp",
      "outputs": [
        {
          "internalType": "uint256",
          "name": "",
          "type": "uint256"
        }
      ],
      "stateMutability": "view",
      "type": "function"
    },
    {
      "inputs": [],
      "name": "name",
      "outputs": [
        {
          "internalType": "string",
          "name": "",
          "type": "string"
        }
      ],
      "stateMutability": "view",
      "type": "function"
    },
    {
      "inputs": [],
      "name": "symbol",
      "outputs": [
        {
          "internalType": "string",
          "name": "",
          "type": "string"
        }
      ],
      "stateMutability": "view",
      "type": "function"
    },
    {
      "inputs": [],
      "name": "totalSupply",
      "outputs": [
        {
          "internalType": "uint256",
          "name": "",
          "type": "uint256"
        }
      ],
      "stateMutability": "view",
      "type": "function"
    },
    {
      "inputs": [
        {
          "internalType": "address",
          "name": "to",
          "type": "address"
        },
        {
          "internalType": "uint256",
          "name": "value",
          "type": "uint256"
        }
      ],
      "name": "transfer",
      "outputs": [
        {
          "internalType": "bool",
          "name": "",
          "type": "bool"
        }
      ],
      "stateMutability": "nonpayable",
      "type": "function"
    },
    {
      "inputs": [
        {
          "internalType": "address",
          "name": "from",
          "type": "address"
        },
        {
          "internalType": "address",
          "name": "to",
          "type": "address"
        },
        {
          "internalType": "uint256",
          "name": "value",
          "type": "uint256"
        }
      ],
      "name": "transferFrom",
      "outputs": [
        {
          "internalType": "bool",
          "name": "",
          "type": "bool"
        }
      ],
      "stateMutability": "nonpayable",
      "type": "function"
    }
  ],
  "bytecode": "0x608060405234801561001057600080fd5b506040518060400160405280602081526020017f4f70656e20456475636174696f6e616c205265736f757263657320546f6b656e8152506040518060400160405280600481526020017f4f45525400000000000000000000000000000000000000000000000000000000815250816003908161008c91906105b4565b50806004908161009c91906105b4565b5050506100b233620f42406100b760201b60201c565b6107a6565b600073ffffffffffffffffffffffffffffffffffffffff168273ffffffffffffffffffffffffffffffffffffffff16036101295760006040517fec442f0500000000000000000000000000000000000000000000000000000000815260040161012091906106c7565b60405180910390fd5b61013b6000838361013f60201b60201c565b5050565b600073ffffffffffffffffffffffffffffffffffffffff168373ffffffffffffffffffffffffffffffffffffffff16036101915780600260008282546101859190610711565b92505081905550610264565b60008060008573ffffffffffffffffffffffffffffffffffffffff1673ffffffffffffffffffffffffffffffffffffffff1681526020019081526020016000205490508181101561021d578381836040517fe450d38c00000000000000000000000000000000000000000000000000000000815260040161021493929190610754565b60405180910390fd5b8181036000808673ffffffffffffffffffffffffffffffffffffffff1673ffffffffffffffffffffffffffffffffffffffff16815260200190815260200160002081905550505b600073ffffffffffffffffffffffffffffffffffffffff168273ffffffffffffffffffffffffffffffffffffffff16036102ad57806002600082825403925050819055506102fa565b806000808473ffffffffffffffffffffffffffffffffffffffff1673ffffffffffffffffffffffffffffffffffffffff168152602001908152602001600020600082825401925050819055505b8173ffffffffffffffffffffffffffffffffffffffff168373ffffffffffffffffffffffffffffffffffffffff167fddf252ad1be2c89b69c2b068fc378daa952ba7f163c4a11628f55a4df523b3ef83604051610357919061078b565b60405180910390a3505050565b600081519050919050565b7f4e487b7100000000000000000000000000000000000000000000000000000000600052604160045260246000fd5b7f4e487b7100000000000000000000000000000000000000000000000000000000600052602260045260246000fd5b600060028204905060018216806103e557607f821691505b6020821081036103f8576103f761039e565b5b50919050565b60008190508160005260206000209050919050565b60006020601f8301049050919050565b600082821b905092915050565b6000600883026104607fffffffffffffffffffffffffffffffffffffffffffffffffffffffffffffffff82610423565b61046a8683610423565b95508019841693508086168417925050509392505050565b6000819050919050565b6000819050919050565b60006104b16104ac6104a784610482565b61048c565b610482565b9050919050565b6000819050919050565b6104cb83610496565b6104df6104d7826104b8565b848454610430565b825550505050565b600090565b6104f46104e7565b6104ff8184846104c2565b505050565b5b81811015610523576105186000826104ec565b600181019050610505565b5050565b601f82111561056857610539816103fe565b61054284610413565b81016020851015610551578190505b61056561055d85610413565b830182610504565b50505b505050565b600082821c905092915050565b600061058b6000198460080261056d565b1980831691505092915050565b60006105a4838361057a565b9150826002028217905092915050565b6105bd82610364565b67ffffffffffffffff8111156105d6576105d561036f565b5b6105e082546103cd565b6105eb828285610527565b600060209050601f83116001811461061e576000841561060c578287015190505b6106168582610598565b86555061067e565b601f19841661062c866103fe565b60005b828110156106545784890151825560018201915060208501945060208101905061062f565b86831015610671578489015161066d601f89168261057a565b8355505b6001600288020188555050505b505050505050565b600073ffffffffffffffffffffffffffffffffffffffff82169050919050565b60006106b182610686565b9050919050565b6106c1816106a6565b82525050565b60006020820190506106dc60008301846106b8565b92915050565b7f4e487b7100000000000000000000000000000000000000000000000000000000600052601160045260246000fd5b600061071c82610482565b915061072783610482565b925082820190508082111561073f5761073e6106e2565b5b92915050565b61074e81610482565b82525050565b600060608201905061076960008301866106b8565b6107766020830185610745565b6107836040830184610745565b949350505050565b60006020820190506107a06000830184610745565b92915050565b61115e806107b56000396000f3fe608060405234801561001057600080fd5b50600436106101165760003560e01c80633b5c13b2116100a257806395d89b411161007157806395d89b41146102c3578063a9059cbb146102e1578063c5bf1ced14610311578063dd62ed3e1461032f578063de1cf4ad1461035f57610116565b80633b5c13b21461024d57806340db40d51461026b57806369c5dfd81461027557806370a082311461029357610116565b806318821400116100e957806318821400146101a557806323b872dd146101c35780632a905318146101f35780632e0f262514610211578063313ce5671461022f57610116565b806306fdde031461011b578063095ea7b3146101395780630f780b561461016957806318160ddd14610187575b600080fd5b61012361038f565b6040516101309190610db2565b60405180910390f35b610153600480360381019061014e9190610e6d565b610421565b6040516101609190610ec8565b60405180910390f35b610171610444565b60405161017e9190610ef2565b60405180910390f35b61018f61044b565b60405161019c9190610ef2565b60405180910390f35b6101ad610455565b6040516101ba9190610db2565b60405180910390f35b6101dd60048036038101906101d89190610f0d565b61048e565b6040516101ea9190610ec8565b60405180910390f35b6101fb6104bd565b6040516102089190610db2565b60405180910390f35b6102196104f6565b6040516102269190610ef2565b60405180910390f35b6102376104fb565b6040516102449190610f7c565b60405180910390f35b610255610504565b6040516102629190610ef2565b60405180910390f35b610273610509565b005b61027d61055a565b60405161028a9190610ef2565b60405180910390f35b6102ad60048036038101906102a89190610f97565b61055f565b6040516102ba9190610ef2565b60405180910390f35b6102cb6105a7565b6040516102d89190610db2565b60405180910390f35b6102fb60048036038101906102f69190610e6d565b610639565b6040516103089190610ec8565b60405180910390f35b61031961065c565b6040516103269190610ef2565b60405180910390f35b61034960048036038101906103449190610fc4565b610663565b6040516103569190610ef2565b60405180910390f35b61037960048036038101906103749190610f97565b6106ea565b6040516103869190610ef2565b60405180910390f35b60606003805461039e90611033565b80601f01602080910402602001604051908101604052809291908181526020018280546103ca90611033565b80156104175780601f106103ec57610100808354040283529160200191610417565b820191906000526020600020905b8154815290600101906020018083116103fa57829003601f168201915b5050505050905090565b60008061042c610702565b905061043981858561070a565b600191505092915050565b6201518081565b6000600254905090565b6040518060400160405280602081526020017f4f70656e20456475636174696f6e616c205265736f757263657320546f6b656e81525081565b600080610499610702565b90506104a685828561071c565b6104b18585856107b0565b60019150509392505050565b6040518060400160405280600481526020017f4f4552540000000000000000000000000000000000000000000000000000000081525081565b601281565b60006012905090565b600a81565b61051433600a6108a4565b42600560003373ffffffffffffffffffffffffffffffffffffffff1673ffffffffffffffffffffffffffffffffffffffff16815260200190815260200160002081905550565b606481565b60008060008373ffffffffffffffffffffffffffffffffffffffff1673ffffffffffffffffffffffffffffffffffffffff168152602001908152602001600020549050919050565b6060600480546105b690611033565b80601f01602080910402602001604051908101604052809291908181526020018280546105e290611033565b801561062f5780601f106106045761010080835404028352916020019161062f565b820191906000526020600020905b81548152906001019060200180831161061257829003601f168201915b5050505050905090565b600080610644610702565b90506106518185856107b0565b600191505092915050565b620f424081565b6000600160008473ffffffffffffffffffffffffffffffffffffffff1673ffffffffffffffffffffffffffffffffffffffff16815260200190815260200160002060008373ffffffffffffffffffffffffffffffffffffffff1673ffffffffffffffffffffffffffffffffffffffff16815260200190815260200160002054905092915050565b60056020528060005260406000206000915090505481565b600033905090565b6107178383836001610926565b505050565b60006107288484610663565b90507fffffffffffffffffffffffffffffffffffffffffffffffffffffffffffffffff81146107aa578181101561079a578281836040517ffb8f41b200000000000000000000000000000000000000000000000000000000815260040161079193929190611073565b60405180910390fd5b6107a984848484036000610926565b5b50505050565b600073ffffffffffffffffffffffffffffffffffffffff168373ffffffffffffffffffffffffffffffffffffffff16036108225760006040517f96c6fd1e00000000000000000000000000000000000000000000000000000000815260040161081991906110aa565b60405180910390fd5b600073ffffffffffffffffffffffffffffffffffffffff168273ffffffffffffffffffffffffffffffffffffffff16036108945760006040517fec442f0500000000000000000000000000000000000000000000000000000000815260040161088b91906110aa565b60405180910390fd5b61089f838383610afd565b505050565b600073ffffffffffffffffffffffffffffffffffffffff168273ffffffffffffffffffffffffffffffffffffffff16036109165760006040517fec442f0500000000000000000000000000000000000000000000000000000000815260040161090d91906110aa565b60405180910390fd5b61092260008383610afd565b5050565b600073ffffffffffffffffffffffffffffffffffffffff168473ffffffffffffffffffffffffffffffffffffffff16036109985760006040517fe602df0500000000000000000000000000000000000000000000000000000000815260040161098f91906110aa565b60405180910390fd5b600073ffffffffffffffffffffffffffffffffffffffff168373ffffffffffffffffffffffffffffffffffffffff1603610a0a5760006040517f94280d62000000000000000000000000000000000000000000000000000000008152600401610a0191906110aa565b60405180910390fd5b81600160008673ffffffffffffffffffffffffffffffffffffffff1673ffffffffffffffffffffffffffffffffffffffff16815260200190815260200160002060008573ffffffffffffffffffffffffffffffffffffffff1673ffffffffffffffffffffffffffffffffffffffff168152602001908152602001600020819055508015610af7578273ffffffffffffffffffffffffffffffffffffffff168473ffffffffffffffffffffffffffffffffffffffff167f8c5be1e5ebec7d5bd14f71427d1e84f3dd0314c0f7b2291e5b200ac8c7c3b92584604051610aee9190610ef2565b60405180910390a35b50505050565b600073ffffffffffffffffffffffffffffffffffffffff168373ffffffffffffffffffffffffffffffffffffffff1603610b4f578060026000828254610b4391906110f4565b92505081905550610c22565b60008060008573ffffffffffffffffffffffffffffffffffffffff1673ffffffffffffffffffffffffffffffffffffffff16815260200190815260200160002054905081811015610bdb578381836040517fe450d38c000000000000000000000000000000000000000000000000000000008152600401610bd293929190611073565b60405180910390fd5b8181036000808673ffffffffffffffffffffffffffffffffffffffff1673ffffffffffffffffffffffffffffffffffffffff16815260200190815260200160002081905550505b600073ffffffffffffffffffffffffffffffffffffffff168273ffffffffffffffffffffffffffffffffffffffff1603610c6b5780600260008282540392505081905550610cb8565b806000808473ffffffffffffffffffffffffffffffffffffffff1673ffffffffffffffffffffffffffffffffffffffff168152602001908152602001600020600082825401925050819055505b8173ffffffffffffffffffffffffffffffffffffffff168373ffffffffffffffffffffffffffffffffffffffff167fddf252ad1be2c89b69c2b068fc378daa952ba7f163c4a11628f55a4df523b3ef83604051610d159190610ef2565b60405180910390a3505050565b600081519050919050565b600082825260208201905092915050565b60005b83811015610d5c578082015181840152602081019050610d41565b60008484015250505050565b6000601f19601f8301169050919050565b6000610d8482610d22565b610d8e8185610d2d565b9350610d9e818560208601610d3e565b610da781610d68565b840191505092915050565b60006020820190508181036000830152610dcc8184610d79565b905092915050565b600080fd5b600073ffffffffffffffffffffffffffffffffffffffff82169050919050565b6000610e0482610dd9565b9050919050565b610e1481610df9565b8114610e1f57600080fd5b50565b600081359050610e3181610e0b565b92915050565b6000819050919050565b610e4a81610e37565b8114610e5557600080fd5b50565b600081359050610e6781610e41565b92915050565b60008060408385031215610e8457610e83610dd4565b5b6000610e9285828601610e22565b9250506020610ea385828601610e58565b9150509250929050565b60008115159050919050565b610ec281610ead565b82525050565b6000602082019050610edd6000830184610eb9565b92915050565b610eec81610e37565b82525050565b6000602082019050610f076000830184610ee3565b92915050565b600080600060608486031215610f2657610f25610dd4565b5b6000610f3486828701610e22565b9350506020610f4586828701610e22565b9250506040610f5686828701610e58565b9150509250925092565b600060ff82169050919050565b610f7681610f60565b82525050565b6000602082019050610f916000830184610f6d565b92915050565b600060208284031215610fad57610fac610dd4565b5b6000610fbb84828501610e22565b91505092915050565b60008060408385031215610fdb57610fda610dd4565b5b6000610fe985828601610e22565b9250506020610ffa85828601610e22565b9150509250929050565b7f4e487b7100000000000000000000000000000000000000000000000000000000600052602260045260246000fd5b6000600282049050600182168061104b57607f821691505b60208210810361105e5761105d611004565b5b50919050565b61106d81610df9565b82525050565b60006060820190506110886000830186611064565b6110956020830185610ee3565b6110a26040830184610ee3565b949350505050565b60006020820190506110bf6000830184611064565b92915050565b7f4e487b7100000000000000000000000000000000000000000000000000000000600052601160045260246000fd5b60006110ff82610e37565b915061110a83610e37565b9250828201905080821115611122576111216110c5565b5b9291505056fea264697066735822122011645039919009f8cae9d2484428039c0d9681ac78a9be24c418f39111d7a29464736f6c634300081b0033",
  "linkReferences": {},
  "deployedLinkReferences": {}
}