{
  "_format": "hh-sol-artifact-1",
  "contractName": "Token",
  "sourceName": "contracts/Token.sol",
  "abi": [
    {
      "inputs": [],
      "stateMutability": "nonpayable",
      "type": "constructor"
    },
    {
      "anonymous": false,
      "inputs": [
        {
          "indexed": true,
          "internalType": "address",
          "name": "_from",
          "type": "address"
        },
        {
          "indexed": true,
          "internalType": "address",
          "name": "_to",
          "type": "address"
        },
        {
          "indexed": false,
          "internalType": "uint256",
          "name": "_value",
          "type": "uint256"
        }
      ],
      "name": "Transfer",
      "type": "event"
    },
    {
      "inputs": [
        {
          "internalType": "address",
          "name": "account",
          "type": "address"
        }
      ],
      "name": "balanceOf",
      "outputs": [
        {
          "internalType": "uint256",
          "name": "",
          "type": "uint256"
        }
      ],
      "stateMutability": "view",
      "type": "function"
    },
    {
      "inputs": [],
      "name": "getOwnerBalances",
      "outputs": [
        {
          "internalType": "uint256",
          "name": "",
          "type": "uint256"
        }
      ],
      "stateMutability": "view",
      "type": "function"
    },
    {
      "inputs": [],
      "name": "name",
      "outputs": [
        {
          "internalType": "string",
          "name": "",
          "type": "string"
        }
      ],
      "stateMutability": "view",
      "type": "function"
    },
    {
      "inputs": [],
      "name": "owner",
      "outputs": [
        {
          "internalType": "address",
          "name": "",
          "type": "address"
        }
      ],
      "stateMutability": "view",
      "type": "function"
    },
    {
      "inputs": [],
      "name": "symbol",
      "outputs": [
        {
          "internalType": "string",
          "name": "",
          "type": "string"
        }
      ],
      "stateMutability": "view",
      "type": "function"
    },
    {
      "inputs": [],
      "name": "totalSupply",
      "outputs": [
        {
          "internalType": "uint256",
          "name": "",
          "type": "uint256"
        }
      ],
      "stateMutability": "view",
      "type": "function"
    },
    {
      "inputs": [
        {
          "internalType": "address",
          "name": "to",
          "type": "address"
        },
        {
          "internalType": "uint256",
          "name": "amount",
          "type": "uint256"
        }
      ],
      "name": "transfer",
      "outputs": [],
      "stateMutability": "nonpayable",
      "type": "function"
    }
  ],
  "bytecode": "0x60806040526040518060400160405280602081526020017f4f70656e20456475636174696f6e616c205265736f757263657320546f6b656e81525060009081610048919061037e565b506040518060400160405280600481526020017f4f455254000000000000000000000000000000000000000000000000000000008152506001908161008d919061037e565b50620f42406002553480156100a157600080fd5b50600254600460003373ffffffffffffffffffffffffffffffffffffffff1673ffffffffffffffffffffffffffffffffffffffff1681526020019081526020016000208190555033600360006101000a81548173ffffffffffffffffffffffffffffffffffffffff021916908373ffffffffffffffffffffffffffffffffffffffff160217905550610450565b600081519050919050565b7f4e487b7100000000000000000000000000000000000000000000000000000000600052604160045260246000fd5b7f4e487b7100000000000000000000000000000000000000000000000000000000600052602260045260246000fd5b600060028204905060018216806101af57607f821691505b6020821081036101c2576101c1610168565b5b50919050565b60008190508160005260206000209050919050565b60006020601f8301049050919050565b600082821b905092915050565b60006008830261022a7fffffffffffffffffffffffffffffffffffffffffffffffffffffffffffffffff826101ed565b61023486836101ed565b95508019841693508086168417925050509392505050565b6000819050919050565b6000819050919050565b600061027b6102766102718461024c565b610256565b61024c565b9050919050565b6000819050919050565b61029583610260565b6102a96102a182610282565b8484546101fa565b825550505050565b600090565b6102be6102b1565b6102c981848461028c565b505050565b5b818110156102ed576102e26000826102b6565b6001810190506102cf565b5050565b601f82111561033257610303816101c8565b61030c846101dd565b8101602085101561031b578190505b61032f610327856101dd565b8301826102ce565b50505b505050565b600082821c905092915050565b600061035560001984600802610337565b1980831691505092915050565b600061036e8383610344565b9150826002028217905092915050565b6103878261012e565b67ffffffffffffffff8111156103a05761039f610139565b5b6103aa8254610197565b6103b58282856102f1565b600060209050601f8311600181146103e857600084156103d6578287015190505b6103e08582610362565b865550610448565b601f1984166103f6866101c8565b60005b8281101561041e578489015182556001820191506020850194506020810190506103f9565b8683101561043b5784890151610437601f891682610344565b8355505b6001600288020188555050505b505050505050565b610a278061045f6000396000f3fe608060405234801561001057600080fd5b506004361061007d5760003560e01c806370a082311161005b57806370a08231146100dc5780638da5cb5b1461010c57806395d89b411461012a578063a9059cbb146101485761007d565b806306fdde031461008257806318160ddd146100a057806321b403e8146100be575b600080fd5b61008a610164565b6040516100979190610673565b60405180910390f35b6100a86101f2565b6040516100b591906106ae565b60405180910390f35b6100c66101f8565b6040516100d391906106ae565b60405180910390f35b6100f660048036038101906100f1919061072c565b610239565b60405161010391906106ae565b60405180910390f35b610114610282565b6040516101219190610768565b60405180910390f35b6101326102a8565b60405161013f9190610673565b60405180910390f35b610162600480360381019061015d91906107af565b610336565b005b600080546101719061081e565b80601f016020809104026020016040519081016040528092919081815260200182805461019d9061081e565b80156101ea5780601f106101bf576101008083540402835291602001916101ea565b820191906000526020600020905b8154815290600101906020018083116101cd57829003601f168201915b505050505081565b60025481565b6000600360009054906101000a900473ffffffffffffffffffffffffffffffffffffffff1673ffffffffffffffffffffffffffffffffffffffff1631905090565b6000600460008373ffffffffffffffffffffffffffffffffffffffff1673ffffffffffffffffffffffffffffffffffffffff168152602001908152602001600020549050919050565b600360009054906101000a900473ffffffffffffffffffffffffffffffffffffffff1681565b600180546102b59061081e565b80601f01602080910402602001604051908101604052809291908181526020018280546102e19061081e565b801561032e5780601f106103035761010080835404028352916020019161032e565b820191906000526020600020905b81548152906001019060200180831161031157829003601f168201915b505050505081565b80600460003373ffffffffffffffffffffffffffffffffffffffff1673ffffffffffffffffffffffffffffffffffffffff1681526020019081526020016000205410156103b8576040517f08c379a00000000000000000000000000000000000000000000000000000000081526004016103af9061089b565b60405180910390fd5b6103dc6040518060600160405280602481526020016109ce602491393384846104f1565b80600460003373ffffffffffffffffffffffffffffffffffffffff1673ffffffffffffffffffffffffffffffffffffffff168152602001908152602001600020600082825461042b91906108ea565b9250508190555080600460008473ffffffffffffffffffffffffffffffffffffffff1673ffffffffffffffffffffffffffffffffffffffff1681526020019081526020016000206000828254610481919061091e565b925050819055508173ffffffffffffffffffffffffffffffffffffffff163373ffffffffffffffffffffffffffffffffffffffff167fddf252ad1be2c89b69c2b068fc378daa952ba7f163c4a11628f55a4df523b3ef836040516104e591906106ae565b60405180910390a35050565b61058d8484848460405160240161050b9493929190610952565b6040516020818303038152906040527f8ef3f399000000000000000000000000000000000000000000000000000000007bffffffffffffffffffffffffffffffffffffffffffffffffffffffff19166020820180517bffffffffffffffffffffffffffffffffffffffffffffffffffffffff8381831617835250505050610593565b50505050565b6105aa816105a26105ad6105ce565b63ffffffff16565b50565b60006a636f6e736f6c652e6c6f679050600080835160208501845afa505050565b6105d9819050919050565b6105e161099e565b565b600081519050919050565b600082825260208201905092915050565b60005b8381101561061d578082015181840152602081019050610602565b60008484015250505050565b6000601f19601f8301169050919050565b6000610645826105e3565b61064f81856105ee565b935061065f8185602086016105ff565b61066881610629565b840191505092915050565b6000602082019050818103600083015261068d818461063a565b905092915050565b6000819050919050565b6106a881610695565b82525050565b60006020820190506106c3600083018461069f565b92915050565b600080fd5b600073ffffffffffffffffffffffffffffffffffffffff82169050919050565b60006106f9826106ce565b9050919050565b610709816106ee565b811461071457600080fd5b50565b60008135905061072681610700565b92915050565b600060208284031215610742576107416106c9565b5b600061075084828501610717565b91505092915050565b610762816106ee565b82525050565b600060208201905061077d6000830184610759565b92915050565b61078c81610695565b811461079757600080fd5b50565b6000813590506107a981610783565b92915050565b600080604083850312156107c6576107c56106c9565b5b60006107d485828601610717565b92505060206107e58582860161079a565b9150509250929050565b7f4e487b7100000000000000000000000000000000000000000000000000000000600052602260045260246000fd5b6000600282049050600182168061083657607f821691505b602082108103610849576108486107ef565b5b50919050565b7f4e6f7420656e6f75676820746f6b656e73000000000000000000000000000000600082015250565b60006108856011836105ee565b91506108908261084f565b602082019050919050565b600060208201905081810360008301526108b481610878565b9050919050565b7f4e487b7100000000000000000000000000000000000000000000000000000000600052601160045260246000fd5b60006108f582610695565b915061090083610695565b9250828203905081811115610918576109176108bb565b5b92915050565b600061092982610695565b915061093483610695565b925082820190508082111561094c5761094b6108bb565b5b92915050565b6000608082019050818103600083015261096c818761063a565b905061097b6020830186610759565b6109886040830185610759565b610995606083018461069f565b95945050505050565b7f4e487b7100000000000000000000000000000000000000000000000000000000600052605160045260246000fdfe5472616e7366657272696e672066726f6d20257320746f20257320257320746f6b656e73a264697066735822122066295b975b029ce9c5c9f75dc435afcccd0e23ef3c6fab53521c4dc486d221db64736f6c634300081b0033",
  "linkReferences": {},
  "deployedLinkReferences": {}
}