{
  "_format": "hh-sol-artifact-1",
  "contractName": "OERVoting",
  "sourceName": "contracts/OERVoting.sol",
  "abi": [
    {
      "inputs": [
        {
          "internalType": "address",
          "name": "_tokenAddress",
          "type": "address"
        }
      ],
      "stateMutability": "nonpayable",
      "type": "constructor"
    },
    {
      "inputs": [
        {
          "internalType": "uint256",
          "name": "",
          "type": "uint256"
        },
        {
          "internalType": "address",
          "name": "",
          "type": "address"
        }
      ],
      "name": "oerPerUserVotes",
      "outputs": [
        {
          "internalType": "uint256",
          "name": "",
          "type": "uint256"
        }
      ],
      "stateMutability": "view",
      "type": "function"
    },
    {
      "inputs": [
        {
          "internalType": "uint256",
          "name": "",
          "type": "uint256"
        }
      ],
      "name": "oerTotalVotes",
      "outputs": [
        {
          "internalType": "uint256",
          "name": "",
          "type": "uint256"
        }
      ],
      "stateMutability": "view",
      "type": "function"
    },
    {
      "inputs": [
        {
          "internalType": "uint256",
          "name": "oerId",
          "type": "uint256"
        },
        {
          "internalType": "uint256",
          "name": "tokenAmount",
          "type": "uint256"
        }
      ],
      "name": "voteToken",
      "outputs": [],
      "stateMutability": "payable",
      "type": "function"
    },
    {
      "inputs": [],
      "name": "votingToken",
      "outputs": [
        {
          "internalType": "contract IERC20",
          "name": "",
          "type": "address"
        }
      ],
      "stateMutability": "view",
      "type": "function"
    }
  ],
  "bytecode": "0x608060405234801561001057600080fd5b5060405161094c38038061094c833981810160405281019061003291906100dc565b80600260006101000a81548173ffffffffffffffffffffffffffffffffffffffff021916908373ffffffffffffffffffffffffffffffffffffffff16021790555050610109565b600080fd5b600073ffffffffffffffffffffffffffffffffffffffff82169050919050565b60006100a98261007e565b9050919050565b6100b98161009e565b81146100c457600080fd5b50565b6000815190506100d6816100b0565b92915050565b6000602082840312156100f2576100f1610079565b5b6000610100848285016100c7565b91505092915050565b610834806101186000396000f3fe60806040526004361061003f5760003560e01c80631c15ac75146100445780636abdbe3614610081578063b0340123146100be578063bc19ab6c146100e9575b600080fd5b34801561005057600080fd5b5061006b60048036038101906100669190610459565b610105565b60405161007891906104a8565b60405180910390f35b34801561008d57600080fd5b506100a860048036038101906100a391906104c3565b61012a565b6040516100b591906104a8565b60405180910390f35b3480156100ca57600080fd5b506100d3610142565b6040516100e0919061054f565b60405180910390f35b61010360048036038101906100fe919061056a565b610168565b005b6000602052816000526040600020602052806000526040600020600091509150505481565b60016020528060005260406000206000915090505481565b600260009054906101000a900473ffffffffffffffffffffffffffffffffffffffff1681565b600081116101ab576040517f08c379a00000000000000000000000000000000000000000000000000000000081526004016101a290610607565b60405180910390fd5b80600260009054906101000a900473ffffffffffffffffffffffffffffffffffffffff1673ffffffffffffffffffffffffffffffffffffffff166370a08231336040518263ffffffff1660e01b81526004016102079190610636565b602060405180830381865afa158015610224573d6000803e3d6000fd5b505050506040513d601f19601f820116820180604052508101906102489190610666565b1015610289576040517f08c379a0000000000000000000000000000000000000000000000000000000008152600401610280906106df565b60405180910390fd5b600260009054906101000a900473ffffffffffffffffffffffffffffffffffffffff1673ffffffffffffffffffffffffffffffffffffffff166323b872dd3330846040518463ffffffff1660e01b81526004016102e8939291906106ff565b6020604051808303816000875af1158015610307573d6000803e3d6000fd5b505050506040513d601f19601f8201168201806040525081019061032b919061076e565b508060008084815260200190815260200160002060003373ffffffffffffffffffffffffffffffffffffffff1673ffffffffffffffffffffffffffffffffffffffff168152602001908152602001600020600082825461038b91906107ca565b92505081905550806001600084815260200190815260200160002060008282546103b591906107ca565b925050819055505050565b600080fd5b6000819050919050565b6103d8816103c5565b81146103e357600080fd5b50565b6000813590506103f5816103cf565b92915050565b600073ffffffffffffffffffffffffffffffffffffffff82169050919050565b6000610426826103fb565b9050919050565b6104368161041b565b811461044157600080fd5b50565b6000813590506104538161042d565b92915050565b600080604083850312156104705761046f6103c0565b5b600061047e858286016103e6565b925050602061048f85828601610444565b9150509250929050565b6104a2816103c5565b82525050565b60006020820190506104bd6000830184610499565b92915050565b6000602082840312156104d9576104d86103c0565b5b60006104e7848285016103e6565b91505092915050565b6000819050919050565b600061051561051061050b846103fb565b6104f0565b6103fb565b9050919050565b6000610527826104fa565b9050919050565b60006105398261051c565b9050919050565b6105498161052e565b82525050565b60006020820190506105646000830184610540565b92915050565b60008060408385031215610581576105806103c0565b5b600061058f858286016103e6565b92505060206105a0858286016103e6565b9150509250929050565b600082825260208201905092915050565b7f546f6b656e20616d6f756e74206d75737420626520706f736974697665000000600082015250565b60006105f1601d836105aa565b91506105fc826105bb565b602082019050919050565b60006020820190508181036000830152610620816105e4565b9050919050565b6106308161041b565b82525050565b600060208201905061064b6000830184610627565b92915050565b600081519050610660816103cf565b92915050565b60006020828403121561067c5761067b6103c0565b5b600061068a84828501610651565b91505092915050565b7f4e6f74206861766520656e6f75676820746f6b656e7300000000000000000000600082015250565b60006106c96016836105aa565b91506106d482610693565b602082019050919050565b600060208201905081810360008301526106f8816106bc565b9050919050565b60006060820190506107146000830186610627565b6107216020830185610627565b61072e6040830184610499565b949350505050565b60008115159050919050565b61074b81610736565b811461075657600080fd5b50565b60008151905061076881610742565b92915050565b600060208284031215610784576107836103c0565b5b600061079284828501610759565b91505092915050565b7f4e487b7100000000000000000000000000000000000000000000000000000000600052601160045260246000fd5b60006107d5826103c5565b91506107e0836103c5565b92508282019050808211156107f8576107f761079b565b5b9291505056fea2646970667358221220a0f05131e99f03559db642b84d5e0b718b0a9610afb7c4de7475c5ae656d06e964736f6c634300081b0033",
  "linkReferences": {},
  "deployedLinkReferences": {}
}