{
  "_format": "hh-sol-artifact-1",
  "contractName": "OERVoting",
  "sourceName": "contracts/OERVoting.sol",
  "abi": [
    {
      "inputs": [
        {
          "internalType": "address",
          "name": "_tokenAddress",
          "type": "address"
        }
      ],
      "stateMutability": "nonpayable",
      "type": "constructor"
    },
    {
      "inputs": [],
      "name": "DECIMALS",
      "outputs": [
        {
          "internalType": "uint256",
          "name": "",
          "type": "uint256"
        }
      ],
      "stateMutability": "view",
      "type": "function"
    },
    {
      "inputs": [
        {
          "internalType": "uint256",
          "name": "",
          "type": "uint256"
        },
        {
          "internalType": "address",
          "name": "",
          "type": "address"
        }
      ],
      "name": "oerPerUserVotes",
      "outputs": [
        {
          "internalType": "uint256",
          "name": "",
          "type": "uint256"
        }
      ],
      "stateMutability": "view",
      "type": "function"
    },
    {
      "inputs": [
        {
          "internalType": "uint256",
          "name": "",
          "type": "uint256"
        }
      ],
      "name": "oerTotalVotes",
      "outputs": [
        {
          "internalType": "uint256",
          "name": "",
          "type": "uint256"
        }
      ],
      "stateMutability": "view",
      "type": "function"
    },
    {
      "inputs": [
        {
          "internalType": "uint256",
          "name": "oerId",
          "type": "uint256"
        },
        {
          "internalType": "uint256",
          "name": "tokenAmount",
          "type": "uint256"
        }
      ],
      "name": "voteToken",
      "outputs": [],
      "stateMutability": "payable",
      "type": "function"
    },
    {
      "inputs": [],
      "name": "votingToken",
      "outputs": [
        {
          "internalType": "contract IERC20",
          "name": "",
          "type": "address"
        }
      ],
      "stateMutability": "view",
      "type": "function"
    }
  ],
  "bytecode": "0x608060405234801561001057600080fd5b50604051610b7d380380610b7d833981810160405281019061003291906100dc565b80600260006101000a81548173ffffffffffffffffffffffffffffffffffffffff021916908373ffffffffffffffffffffffffffffffffffffffff16021790555050610109565b600080fd5b600073ffffffffffffffffffffffffffffffffffffffff82169050919050565b60006100a98261007e565b9050919050565b6100b98161009e565b81146100c457600080fd5b50565b6000815190506100d6816100b0565b92915050565b6000602082840312156100f2576100f1610079565b5b6000610100848285016100c7565b91505092915050565b610a65806101186000396000f3fe60806040526004361061004a5760003560e01c80631c15ac751461004f5780632e0f26251461008c5780636abdbe36146100b7578063b0340123146100f4578063bc19ab6c1461011f575b600080fd5b34801561005b57600080fd5b50610076600480360381019061007191906104ac565b61013b565b60405161008391906104fb565b60405180910390f35b34801561009857600080fd5b506100a1610160565b6040516100ae91906104fb565b60405180910390f35b3480156100c357600080fd5b506100de60048036038101906100d99190610516565b610165565b6040516100eb91906104fb565b60405180910390f35b34801561010057600080fd5b5061010961017d565b60405161011691906105a2565b60405180910390f35b610139600480360381019061013491906105bd565b6101a3565b005b6000602052816000526040600020602052806000526040600020600091509150505481565b601281565b60016020528060005260406000206000915090505481565b600260009054906101000a900473ffffffffffffffffffffffffffffffffffffffff1681565b600081116101e6576040517f08c379a00000000000000000000000000000000000000000000000000000000081526004016101dd9061065a565b60405180910390fd5b80600260009054906101000a900473ffffffffffffffffffffffffffffffffffffffff1673ffffffffffffffffffffffffffffffffffffffff166370a08231336040518263ffffffff1660e01b81526004016102429190610689565b602060405180830381865afa15801561025f573d6000803e3d6000fd5b505050506040513d601f19601f8201168201806040525081019061028391906106b9565b10156102c4576040517f08c379a00000000000000000000000000000000000000000000000000000000081526004016102bb90610732565b60405180910390fd5b600260009054906101000a900473ffffffffffffffffffffffffffffffffffffffff1673ffffffffffffffffffffffffffffffffffffffff166323b872dd3330846040518463ffffffff1660e01b815260040161032393929190610752565b6020604051808303816000875af1158015610342573d6000803e3d6000fd5b505050506040513d601f19601f8201168201806040525081019061036691906107c1565b508060008084815260200190815260200160002060003373ffffffffffffffffffffffffffffffffffffffff1673ffffffffffffffffffffffffffffffffffffffff16815260200190815260200160002060008282546103c6919061081d565b925050819055506012600a6103db9190610984565b816103e691906109fe565b600160008481526020019081526020016000206000828254610408919061081d565b925050819055505050565b600080fd5b6000819050919050565b61042b81610418565b811461043657600080fd5b50565b60008135905061044881610422565b92915050565b600073ffffffffffffffffffffffffffffffffffffffff82169050919050565b60006104798261044e565b9050919050565b6104898161046e565b811461049457600080fd5b50565b6000813590506104a681610480565b92915050565b600080604083850312156104c3576104c2610413565b5b60006104d185828601610439565b92505060206104e285828601610497565b9150509250929050565b6104f581610418565b82525050565b600060208201905061051060008301846104ec565b92915050565b60006020828403121561052c5761052b610413565b5b600061053a84828501610439565b91505092915050565b6000819050919050565b600061056861056361055e8461044e565b610543565b61044e565b9050919050565b600061057a8261054d565b9050919050565b600061058c8261056f565b9050919050565b61059c81610581565b82525050565b60006020820190506105b76000830184610593565b92915050565b600080604083850312156105d4576105d3610413565b5b60006105e285828601610439565b92505060206105f385828601610439565b9150509250929050565b600082825260208201905092915050565b7f546f6b656e20616d6f756e74206d75737420626520706f736974697665000000600082015250565b6000610644601d836105fd565b915061064f8261060e565b602082019050919050565b6000602082019050818103600083015261067381610637565b9050919050565b6106838161046e565b82525050565b600060208201905061069e600083018461067a565b92915050565b6000815190506106b381610422565b92915050565b6000602082840312156106cf576106ce610413565b5b60006106dd848285016106a4565b91505092915050565b7f4e6f74206861766520656e6f75676820746f6b656e7300000000000000000000600082015250565b600061071c6016836105fd565b9150610727826106e6565b602082019050919050565b6000602082019050818103600083015261074b8161070f565b9050919050565b6000606082019050610767600083018661067a565b610774602083018561067a565b61078160408301846104ec565b949350505050565b60008115159050919050565b61079e81610789565b81146107a957600080fd5b50565b6000815190506107bb81610795565b92915050565b6000602082840312156107d7576107d6610413565b5b60006107e5848285016107ac565b91505092915050565b7f4e487b7100000000000000000000000000000000000000000000000000000000600052601160045260246000fd5b600061082882610418565b915061083383610418565b925082820190508082111561084b5761084a6107ee565b5b92915050565b60008160011c9050919050565b6000808291508390505b60018511156108a857808604811115610884576108836107ee565b5b60018516156108935780820291505b80810290506108a185610851565b9450610868565b94509492505050565b6000826108c1576001905061097d565b816108cf576000905061097d565b81600181146108e557600281146108ef5761091e565b600191505061097d565b60ff841115610901576109006107ee565b5b8360020a915084821115610918576109176107ee565b5b5061097d565b5060208310610133831016604e8410600b84101617156109535782820a90508381111561094e5761094d6107ee565b5b61097d565b610960848484600161085e565b92509050818404811115610977576109766107ee565b5b81810290505b9392505050565b600061098f82610418565b915061099a83610418565b92506109c77fffffffffffffffffffffffffffffffffffffffffffffffffffffffffffffffff84846108b1565b905092915050565b7f4e487b7100000000000000000000000000000000000000000000000000000000600052601260045260246000fd5b6000610a0982610418565b9150610a1483610418565b925082610a2457610a236109cf565b5b82820490509291505056fea26469706673582212208f84e516d013b4e31646210ff4ec0835b17c2d56a2a491e545fa7caba9844d9364736f6c634300081b0033",
  "linkReferences": {},
  "deployedLinkReferences": {}
}