{
  "_format": "hh-sol-artifact-1",
  "contractName": "OERVoting",
  "sourceName": "contracts/OERVoting.sol",
  "abi": [
    {
      "inputs": [
        {
          "internalType": "address",
          "name": "_tokenAddress",
          "type": "address"
        }
      ],
      "stateMutability": "nonpayable",
      "type": "constructor"
    },
    {
      "inputs": [
        {
          "internalType": "uint256",
          "name": "",
          "type": "uint256"
        },
        {
          "internalType": "address",
          "name": "",
          "type": "address"
        }
      ],
      "name": "oerPerUserVotes",
      "outputs": [
        {
          "internalType": "uint256",
          "name": "",
          "type": "uint256"
        }
      ],
      "stateMutability": "view",
      "type": "function"
    },
    {
      "inputs": [
        {
          "internalType": "uint256",
          "name": "",
          "type": "uint256"
        }
      ],
      "name": "oerTotalVotes",
      "outputs": [
        {
          "internalType": "uint256",
          "name": "",
          "type": "uint256"
        }
      ],
      "stateMutability": "view",
      "type": "function"
    },
    {
      "inputs": [
        {
          "internalType": "uint256",
          "name": "oerId",
          "type": "uint256"
        },
        {
          "internalType": "uint256",
          "name": "tokenAmount",
          "type": "uint256"
        }
      ],
      "name": "voteToken",
      "outputs": [],
      "stateMutability": "payable",
      "type": "function"
    },
    {
      "inputs": [],
      "name": "votingToken",
      "outputs": [
        {
          "internalType": "contract IERC20",
          "name": "",
          "type": "address"
        }
      ],
      "stateMutability": "view",
      "type": "function"
    }
  ],
  "bytecode": "0x608060405234801561001057600080fd5b50604051610c28380380610c28833981810160405281019061003291906100dc565b80600260006101000a81548173ffffffffffffffffffffffffffffffffffffffff021916908373ffffffffffffffffffffffffffffffffffffffff16021790555050610109565b600080fd5b600073ffffffffffffffffffffffffffffffffffffffff82169050919050565b60006100a98261007e565b9050919050565b6100b98161009e565b81146100c457600080fd5b50565b6000815190506100d6816100b0565b92915050565b6000602082840312156100f2576100f1610079565b5b6000610100848285016100c7565b91505092915050565b610b10806101186000396000f3fe60806040526004361061003f5760003560e01c80631c15ac75146100445780636abdbe3614610081578063b0340123146100be578063bc19ab6c146100e9575b600080fd5b34801561005057600080fd5b5061006b6004803603810190610066919061060a565b610105565b6040516100789190610659565b60405180910390f35b34801561008d57600080fd5b506100a860048036038101906100a39190610674565b61012a565b6040516100b59190610659565b60405180910390f35b3480156100ca57600080fd5b506100d3610142565b6040516100e09190610700565b60405180910390f35b61010360048036038101906100fe919061071b565b610168565b005b6000602052816000526040600020602052806000526040600020600091509150505481565b60016020528060005260406000206000915090505481565b600260009054906101000a900473ffffffffffffffffffffffffffffffffffffffff1681565b600081116101ab576040517f08c379a00000000000000000000000000000000000000000000000000000000081526004016101a2906107b8565b60405180910390fd5b80600260009054906101000a900473ffffffffffffffffffffffffffffffffffffffff1673ffffffffffffffffffffffffffffffffffffffff166370a08231336040518263ffffffff1660e01b815260040161020791906107e7565b602060405180830381865afa158015610224573d6000803e3d6000fd5b505050506040513d601f19601f820116820180604052508101906102489190610817565b1015610289576040517f08c379a000000000000000000000000000000000000000000000000000000000815260040161028090610890565b60405180910390fd5b600260009054906101000a900473ffffffffffffffffffffffffffffffffffffffff1673ffffffffffffffffffffffffffffffffffffffff166323b872dd3330846040518463ffffffff1660e01b81526004016102e8939291906108b0565b6020604051808303816000875af1158015610307573d6000803e3d6000fd5b505050506040513d601f19601f8201168201806040525081019061032b919061091f565b506103eb604051806060016040528060318152602001610aaa603191398383600260009054906101000a900473ffffffffffffffffffffffffffffffffffffffff1673ffffffffffffffffffffffffffffffffffffffff166370a08231336040518263ffffffff1660e01b81526004016103a591906107e7565b602060405180830381865afa1580156103c2573d6000803e3d6000fd5b505050506040513d601f19601f820116820180604052508101906103e69190610817565b61047f565b8060008084815260200190815260200160002060003373ffffffffffffffffffffffffffffffffffffffff1673ffffffffffffffffffffffffffffffffffffffff168152602001908152602001600020600082825461044a919061097b565b9250508190555080600160008481526020019081526020016000206000828254610474919061097b565b925050819055505050565b61051b848484846040516024016104999493929190610a2e565b6040516020818303038152906040527fa7a87853000000000000000000000000000000000000000000000000000000007bffffffffffffffffffffffffffffffffffffffffffffffffffffffff19166020820180517bffffffffffffffffffffffffffffffffffffffffffffffffffffffff8381831617835250505050610521565b50505050565b6105388161053061053b61055c565b63ffffffff16565b50565b60006a636f6e736f6c652e6c6f679050600080835160208501845afa505050565b610567819050919050565b61056f610a7a565b565b600080fd5b6000819050919050565b61058981610576565b811461059457600080fd5b50565b6000813590506105a681610580565b92915050565b600073ffffffffffffffffffffffffffffffffffffffff82169050919050565b60006105d7826105ac565b9050919050565b6105e7816105cc565b81146105f257600080fd5b50565b600081359050610604816105de565b92915050565b6000806040838503121561062157610620610571565b5b600061062f85828601610597565b9250506020610640858286016105f5565b9150509250929050565b61065381610576565b82525050565b600060208201905061066e600083018461064a565b92915050565b60006020828403121561068a57610689610571565b5b600061069884828501610597565b91505092915050565b6000819050919050565b60006106c66106c16106bc846105ac565b6106a1565b6105ac565b9050919050565b60006106d8826106ab565b9050919050565b60006106ea826106cd565b9050919050565b6106fa816106df565b82525050565b600060208201905061071560008301846106f1565b92915050565b6000806040838503121561073257610731610571565b5b600061074085828601610597565b925050602061075185828601610597565b9150509250929050565b600082825260208201905092915050565b7f546f6b656e20616d6f756e74206d75737420626520706f736974697665000000600082015250565b60006107a2601d8361075b565b91506107ad8261076c565b602082019050919050565b600060208201905081810360008301526107d181610795565b9050919050565b6107e1816105cc565b82525050565b60006020820190506107fc60008301846107d8565b92915050565b60008151905061081181610580565b92915050565b60006020828403121561082d5761082c610571565b5b600061083b84828501610802565b91505092915050565b7f4e6f74206861766520656e6f75676820746f6b656e7300000000000000000000600082015250565b600061087a60168361075b565b915061088582610844565b602082019050919050565b600060208201905081810360008301526108a98161086d565b9050919050565b60006060820190506108c560008301866107d8565b6108d260208301856107d8565b6108df604083018461064a565b949350505050565b60008115159050919050565b6108fc816108e7565b811461090757600080fd5b50565b600081519050610919816108f3565b92915050565b60006020828403121561093557610934610571565b5b60006109438482850161090a565b91505092915050565b7f4e487b7100000000000000000000000000000000000000000000000000000000600052601160045260246000fd5b600061098682610576565b915061099183610576565b92508282019050808211156109a9576109a861094c565b5b92915050565b600081519050919050565b60005b838110156109d85780820151818401526020810190506109bd565b60008484015250505050565b6000601f19601f8301169050919050565b6000610a00826109af565b610a0a818561075b565b9350610a1a8185602086016109ba565b610a23816109e4565b840191505092915050565b60006080820190508181036000830152610a4881876109f5565b9050610a57602083018661064a565b610a64604083018561064a565b610a71606083018461064a565b95945050505050565b7f4e487b7100000000000000000000000000000000000000000000000000000000600052605160045260246000fdfe25732077696c6c20626520766f74656420666f7220257320746f6b656e20616e6420686176652025732062616c616e6365a26469706673582212204e25f4607019bdd23af7c5cfae809c916fab3e51438317cce5f2b9cff8ca8c3f64736f6c634300081b0033",
  "linkReferences": {},
  "deployedLinkReferences": {}
}